:100E58002000312E53636C6F6300322E53616C6136
:100E68007200312E636C6F636B00322E616C61729D
:100E78006D00312E53686F775400322E53657474A9
:100E88005400430020202009090920202020202088
:100E9800202020200020202020202020202020206A
:030EA80020200007
:100EF700014C00012900012A00013000012C0001EA
:100F07004B00013D00013C00012E0801280A012D7C
:0E0F170011012616011106012B1D0208000013
:10025700E54CB40120E530B4011BE52964016015C4
:10026700E5296402600FE52A700B7BFF7A0E795847
:10027700FDFF120B38E54CB40221E530B4011CE553
:100287002964016016E52964026010E52A700C7B79
:10029700FF7A0E79587D01FF120B38E54CB4021E28
:1002A700E530B40119E529B4021464016010E52AA8
:1002B700700C7BFF7A0E79587D01FF120B38E54CE5
:1002C700B4011DE530B40118E529B40113640260D7
:1002D7000FE52A700B7BFF7A0E7958FDFF120B385A
:1002E700E54CB4011DE530B40118E529B4021364E7
:1002F70001600FE52A700B7BFF7A0E7958FDFF121C
:100307000B38E54CB4021EE530B40119E529B401F8
:100317001464026010E52A700C7BFF7A0E79587D11
:1003270001FF120B38E54C64017028E5296402705F
:1003370022E5306401601CE52A70187BFF7A0E798C
:100347005AFDFF120B387BFF7A0E79627D01E4FFBD
:10035700120B38E54C64027028E52964027022E527
:10036700306401601CE52A70187BFF7A0E795AFD0C
:10037700FF120B387BFF7A0E79627D01E4FF120BC7
:1003870038E54C64017028E52964017022E5306482
:1003970001601CE52A70187BFF7A0E796AFDFF124F
:1003A7000B387BFF7A0E79727D01E4FF120B38E57B
:1003B7004C64027028E52964017022E5306401600D
:1003C7001CE52A70187BFF7A0E796AFDFF120B383D
:1003D7007BFF7A0E79727D01E4FF120B38E52A6400
:1003E700016031E52A6402602BE52964016025E597
:1003F700296402601FE530640160197BFF7A0E797A
:100407007AE4FDFF120B387BFF7A0E79827D01E4D7
:05041700FF120B38226A
:10002600E5636401707785635485645575630D15C2
:1000360064E5632401FFE433FE7C007D03120C704B
:100046007D05120C82AC06AD07E56375F002A47A55
:10005600002565FFEA35F0CF2DCF3CFE7C00EF256D
:1000660064FFEC3EFEE5641313543F2FFFEC3EFEA7
:10007600E56475F06484FDC3EF9DFBEE9CFAAF6406
:100086007E000C7D90120C82EF2BFFEE3AFE7C0078
:100096007D07120C828D4D855463855564E5636436
:1000A60002707985635485645575630E1564E5633E
:1000B6002401FFE433FE7C007D03120C707D0512E3
:1000C6000C82AC06AD07E56375F002A47A002565DF
:1000D600FFEA35F0CF2DCF3CFE7C00EF2564FFEC28
:1000E6003EFEE5641313543F2FFFEC3EFEE56475B8
:1000F600F06484FDC3EF9DFBEE9CFAAF647E000CBA
:100106007D90120C82EF2BFFEE3AFE7C007D0712EB
:100116000C828D4D8554638555648066E5632401A4
:10012600FFE433FE7C007D03120C707D05120C8209
:10013600AC06AD07E56375F002A47A002565FFEA13
:1001460035F0CF2DCF3CFE7C00EF2564FFEC3EFE64
:10015600E5641313543F2FFFEC3EFEE56475F0642F
:1001660084FDC3EF9DFBEE9CFAAF647E000C7D9090
:10017600120C82EF2BFFEE3AFE7C007D07120C82FA
:100186008D4DE56175F00A842430F541E56175F021
:100196000A84E5F02430F54275433AE56275F00AC3
:1001A600842430F544E56275F00A84E5F02430F5E0
:1001B6004575463AE56075F00A842430F547E560F2
:1001C60075F00A84E5F02430F548E4F549753132D6
:1001D600753230E56475F00A842430F533E56475CC
:1001E600F00A84E5F02430F53475352DE56375F0B5
:1001F6000A842430F536E56375F00A84E5F0243088
:10020600F53775382DE56575F00A842430F539E53E
:100216006575F00A84E5F02430F53AE4F53BE54DE2
:100226002431F55875565775573AE4F559FB7A0057
:100236007931FDFF120B387B007A0079417D01E4AC
:10024600FF120B387B007A007956E4FD7F0C020B17
:01025600386F
:100A7700751B32751C30E52675F00A842430F51D88
:100A8700E52675F00A84E5F02430F51E751F2DE57F
:100A97001175F00A842430F520E51175F00A84E514
:100AA700F02430F52175222DE52B75F00A842430CA
:100AB700F523E52B75F00A84E5F02430F524E4F5F9
:100AC70025E52E75F00A842430F512E52E75F00A17
:100AD70084E5F02430F51375143AE52D75F00A8492
:100AE7002430F515E52D75F00A84E5F02430F51668
:100AF70075173AE52875F00A842430F518E5287546
:100B0700F00A84E5F02430F519E4F51A7BFF7A0E34
:100B1700798AFD7F0C120B387B007A00791BE4FD84
:100B2700FF120B387B007A0079127D01E4FF020B7C
:010B37003885
:100F6E00E4FF120F3E8F617F01120F3E8F627F02F0
:100F7E00120F3E8F607F03120F3E8F647F04120F9D
:0B0F8E003E8F637F05120F3E8F65222F
:100D4300E561FD7C00E4FF120FE77F057E001210D2
:100D53004AE562FD7C007F01120FE77F057E0012EA
:100D6300104AE560FD7C007F02120FE77F057E00DD
:100D730012104AE564FD7C007F03120FE77F057EB6
:100D83000012104AE563FD7C007F04120FE77F0524
:100D93007E0012104AE565FD7C007F05120FE77F98
:060DA300057E0002104A6B
:1010B20085640B85630C85650D85610E85620F85E0
:0310C20060102299
:10084800E53FB40102054CE53F64047042E529B474
:100858000208E52C7004F52980021529E52C6401AD
:100868006011E52C6402600BE52C64036005E52C3F
:10087800B4040C7BFF7A0E798CE4FDFF120B387BF5
:10088800FF7A0E799D7D01E4FF120B38E4F52CD335
:10089800E529648094805003E4F529D3E52A64802F
:1008A80094805003E4F52AE53F64037032E5296437
:1008B800016013E5296402600DE54CB40108E530D8
:1008C800B40103752901E52964016013E52964026F
:1008D800600DE54CB40208E530B40103752902E562
:1008E8003F64027034E54CB40108E529B40103758E
:1008F8002C01E54CB40108E529B40203752C02E586
:100908004CB40208E529B40103752C03E54CB40284
:1009180008E529B40203752C04D3E54C648094825D
:100928004003E4F54CD3E529648094824003E4F560
:100938004CE52CD394044003E4F52CE564B5262457
:10094800E561B52E1FE562B52D1AE560B52815E5F8
:1009580063B51110E565B52B0B7D0A7C007FA07E81
:050968008612100B22B5
:10041C00120CD78F0AE50A14B40A00400302054BEC
:10042C0090043A75F003A4C58325F0C583730204C8
:10043C005802046602047102047F02048A020498C2
:10044C000204A40204B60204C30205380561E56186
:10045C00C39418401CE4F5618017E5617003756165
:10046C0018156180250562E562C3943C4003E4F5F0
:10047C00628017E562700375623C15628029056421
:10048C00E564C394644003E4F564801BE564700385
:10049C0075646415640205360563E563B40D0805DF
:1004AC0064756301756501020536E563B401037576
:1004BC00630D15630205420565E56454037011E58F
:1004CC0063B4020CE565D3941D40050563756501A5
:1004DC00E563B40C0FE565D3941F40087563017593
:1004EC0065010564E565C3942040050563756501E8
:1004FC00E56364046011E5636406600BE5636409FD
:10050C006005E563B40B0CE565D3941E4005756579
:10051C00010563E56454036011E563B4020CE56501
:10052C00D3941C40050563756501800AE565B4012B
:10053C00037565201565E4F50A7F0AFE12104AE57D
:10054C003CB40810E4F5680561E561C39418403CBF
:10055C00E4F56122E53CB41C0DE4F568E56170033B
:10056C00756118156122E53CB44210E4F56805622A
:10057C00E562C3943C4015E4F56222E53CB4520CB0
:0D058C00E4F568E562700375623C156222BB
:10059900120CD78F0AE50A14B40A0040030206C8F0
:1005A9009005B775F003A4C58325F0C583730205CB
:1005B900D50205E30205EE0205FC0206070206154F
:1005C9000206210206330206400206B5052EE52E73
:1005D900C39418401CE4F52E8017E52E7003752E80
:1005E90018152E8025052DE52DC3943C4003E4F50F
:1005F9002D8017E52D7003752D3C152D80290526B5
:10060900E526C394644003E4F526801BE5267003C0
:1006190075266415260206B30511E511B40D080502
:1006290026751101752B010206B3E511B401037595
:10063900110D15110206BF052BE52654037011E5AE
:1006490011B4020CE52BD3941D40050511752B013E
:10065900E511B40C0FE52BD3941F400875110175F2
:100669002B010526E52BC3942040050511752B01A7
:10067900E51164046011E5116406600BE511640974
:100689006005E511B40B0CE52BD3941E4005752BC1
:10069900010511E52654036011E511B4020CE52B9F
:1006A900D3941C40050511752B01800AE52BB40173
:1006B90003752B20152BE4F50A7F0AFE12104AE573
:1006C9003CB40810E4F568052EE52EC39418403CA7
:1006D900E4F52E22E53CB41C0DE4F568E52E700323
:1006E900752E18152E22E53CB44210E4F568052D47
:1006F900E52DC3943C4015E4F52D22E53CB4520C9C
:0D070900E4F568E52D7003752D3C152D22DB
:100E0200120F6E12109E1210C512106812000612F6
:100E120010F685683C1210B2120848120D43E4FF26
:100E2200120EAB8F3FE52C14601A14600F14601978
:100E320014601B240470DB12025780D612002612A3
:100E4200041C80CE12002680C9120A7780C4120ABE
:060E52007712059980BC37
:03000B0002096D7A
:0B096D00C0E0C0F0C0D075D000C00793
:10097800758CDC758A000509E50970020508C394C1
:1009880032E50894004012750800750900E53070DA
:10099800047F0180027F008F30055FE55F6464603B
:1009A80003020A6EF55F0560E56075F00384E5F003
:1009B8007002D298E560643C6003020A6EF5600537
:1009C80062E562643C6003020A6EF5620561E561F6
:1009D80064186003020A6EF5610565E5645403FF57
:1009E800700EE563B40209E565D3941D4002805B8F
:1009F800EF600EE563B40209E565D3941C400280FC
:100A08004AE5636401601DE56364036017E5636498
:100A1800056011E5636407600BE56364086005E53C
:100A280063B40A09E565D3941F4002801EE5636438
:100A3800046011E5636406600BE56364096005E51D
:100A480063B40B0EE565D3941E4007756501056315
:100A58008014E563B40C0FE565D3941F40087563F3
:060A680001756501056443
:090A6E00D007D0D0D0F0D0E03266
:03002300020DA922
:100DA900C0E0C0F0C083C082C0D075D000C000C010
:0D0DB90001C002C003C004C005C006C00791
:100DC600754E00309819740B254EF8E6600DF599AE
:100DD6007F0A7E0012104A054E80EBC2988002C23E
:010DE6009973
:100DE700D007D006D005D004D003D002D001D00060
:0B0DF700D0D0D082D083D0F0D0E0320A
:0910F600D288D2A8D2AFD2B222F6
:03000300020716DB
:10071600C0E0C0F0C083C082C0D075D000C000C0A9
:0D07260001C002C003C004C005C006C0072A
:10073300754F0075500075510075520075530030A8
:10074300B20302082D7550037551E820B21EE5511E
:10075300455060187F017E001210E1E5511551707C
:10076300021550E551455070E202082D20B20302F4
:1007730008157550017551F430B21EE551455060AE
:10078300187F017E001210E1E551155170021550DA
:10079300E551455070E202082D75520075530075FE
:1007A300500275515820B21DE551455060177F0125
:1007B3007E001210E1E551155170021550E55145C7
:1007C3005070E2806575500075511430B2127F0A83
:1007D3007E001210E1054FE54FD3941440ED804A9B
:1007E30074662552F8C000E6C313D000F6E54FC384
:1007F3009408400974662552F8E64480F6754F0064
:100803000553E553C3940840960552E552C3940437
:10081300408AE569F4656860117552007466255273
:0A082300F876000552E552B404F225
:10082D00D007D006D005D004D003D002D001D0001F
:0B083D00D0D0D082D083D0F0D0E032C9
:100FE7008F548C558D561210FF7FA0120F99121037
:100FF700D5AF54120F991210D5AF56120F99121080
:04100700D5021108F5
:020F3E008F54CE
:100F40001210FF7FA0120F991210D5AF54120F99F3
:100F50001210D51210FF7FA1120F991210D5121086
:0D0F60002C8F557F011210EC121108AF55B7
:010F6D002261
:0910FF00D2A0D2A1C2A0C2A1221C
:07110800C2A0D2A1D2A02277
:020F9900AD07A2
:100F9B00E4FB74807E00A803088006CEA2E713CE84
:100FAB0013D8F8FFEDF582EF558224FF92A0D2A162
:060FBB00C2A10BBB08DC23
:010FC100220D
:10102C00E4FFD2A0FED2A130A00D7480A8060880E7
:0D103C0002C313D8FC4207C2A10EBE08E893
:011049002284
:0A10EC00EF24FF92A0D2A1C2A122BE
:0B10D500D2A0D2A1A2A0E433FFC2A170
:0110E00022ED
:100F2500015F000160160162060161090164160195
:050F3500630201651CD0
:1010C500438901758CDCE4F58AD2A9D2AFC28C22A2
:03000600D28C2277
:1010680043878075985053890F438920758BFA758B
:0B1078008DFAC2ABD28ED2AFD2AC22F8
:030F3A00016A0148
:100EAB00EF6003756A01E56A6401702E30B1093099
:100EBB00B00630B20320B3227FE87E031210E1E4C8
:100ECB00F56A20B1037F012220B0037F022220B2FA
:100EDB00037F032220B3127F042230B10C30B00900
:0B0EEB0030B20630B303756A017F00CF
:010EF60022D9
:10108300C2A6C2A5C2A78F807F017E0012104AD2DA
:0B109300A77F017E0012104AC2A722B6
:0A0FC200AB5BAA5CA95D120C57FF9F
:100FCC00D2A6C2A5C2A78F807F017E0012104AD282
:0B0FDC00A77F017E0012104AC2A7226E
:10109E007F381210837F0C1210837F061210837F0D
:0410AE0001021083A8
:080B38008F5A8B5B8A5C895D1A
:100B4000E4F55EEDD394014003020BCAE55A940F1D
:100B50005078EDC394015039AB5BAA5CA95D120CCF
:100B6000576067C37410955AFFE55EC39FE55E50FA
:100B7000062480255A8004255A24B0FF12108312BF
:100B80000FC27401255DF55DE4355CF55C055E80A2
:100B9000C7AB5BAA5CA95D120C57602EC37410959D
:100BA0005AFFE55EC39FE55E500624C0255A8004C7
:100BB000255A2470FF121083120FC27401255DF5AF
:0A0BC0005DE4355CF55C055E80C75E
:010BCA002208
:100CD700E4F55475900FE590640F605DE590640F3F
:100CE700605775900FAF90EF24F5601024FE6011E8
:100CF7001460132407701975540180147554028009
:100D07000875540380037554047F0A7E0012000E91
:100D17007590F0AF90EF2450601124E0601124F03B
:100D2700601124707013855454800E740480067407
:0B0D3700088002740C2554F554AF54E2
:010D4200228E
:10000E00EF1FAC0670011E4C600A7D027CEFDCFE19
:04001E00DDFC80EC99
:0100220022BB
:10100B008E548F558C568D57E5551555AE54700231
:10101B0015544E600BB2A5AF57AE561210E180E8D7
:01102B0022A2
:0B10E100EF1FAC0670011E4C70F622E1
:10104A00D3EF9400EE940040147D6E7C00ED1D7089
:0D105A00011CED4C70F7EF1F70E61E80E3E7
:011067002266
:03000000020BCB25
:0C0BCB00787FE4F6D8FD75816A020C12F8
:100C5700BB010689828A83E0225002E722BBFE029B
:090C6700E32289828A83E49322CE
:100C7000EF8DF0A4A8F0CF8CF0A428CE8DF0A42E98
:020C8000FE2252
:100C8200BC000BBE0029EF8DF084FFADF022E4CC56
:100C9200F875F008EF2FFFEE33FEEC33FCEE9DEC1F
:100CA200984005FCEE9DFE0FD5F0E9E4CEFD22ED65
:100CB200F8F5F0EE8420D21CFEADF075F008EF2FAF
:100CC200FFED33FD4007985006D5F0F222C398FDA0
:050CD2000FD5F0EA223D
:100BD700020E02E493A3F8E493A34003F68001F224
:100BE70008DFF48029E493A3F85407240CC8C3331F
:100BF700C4540F4420C8834004F456800146F6DFEE
:100C0700E4800B0102040810204080900EF7E47E78
:100C1700019360BCA3FF543F30E509541FFEE493E2
:100C2700A360010ECF54C025E060A840B8E493A3A9
:100C3700FAE493A3F8E493A3C8C582C8CAC583CAD4
:100C4700F0A3C8C582C8CAC583CADFE9DEE780BE8C
:010F3D0000B3
:00000001FF
